{
  "contractName": "MarketPlace",
  "abi": [
    {
      "inputs": [],
      "stateMutability": "nonpayable",
      "type": "constructor"
    },
    {
      "inputs": [
        {
          "internalType": "address",
          "name": "",
          "type": "address"
        },
        {
          "internalType": "uint256",
          "name": "",
          "type": "uint256"
        }
      ],
      "name": "myprojects",
      "outputs": [
        {
          "internalType": "address",
          "name": "project_owner",
          "type": "address"
        },
        {
          "internalType": "string",
          "name": "project_topic",
          "type": "string"
        },
        {
          "internalType": "string",
          "name": "project_title",
          "type": "string"
        },
        {
          "internalType": "string",
          "name": "project_desc",
          "type": "string"
        },
        {
          "internalType": "string",
          "name": "image_url",
          "type": "string"
        },
        {
          "internalType": "uint256",
          "name": "carbon_credits",
          "type": "uint256"
        },
        {
          "internalType": "string",
          "name": "serialNumber",
          "type": "string"
        },
        {
          "internalType": "uint256",
          "name": "date_deployed",
          "type": "uint256"
        }
      ],
      "stateMutability": "view",
      "type": "function",
      "constant": true
    },
    {
      "inputs": [],
      "name": "owner",
      "outputs": [
        {
          "internalType": "address payable",
          "name": "",
          "type": "address"
        }
      ],
      "stateMutability": "view",
      "type": "function",
      "constant": true
    },
    {
      "inputs": [
        {
          "internalType": "string",
          "name": "",
          "type": "string"
        }
      ],
      "name": "retired",
      "outputs": [
        {
          "internalType": "bool",
          "name": "",
          "type": "bool"
        }
      ],
      "stateMutability": "view",
      "type": "function",
      "constant": true
    },
    {
      "inputs": [
        {
          "internalType": "string",
          "name": "",
          "type": "string"
        }
      ],
      "name": "validated",
      "outputs": [
        {
          "internalType": "bool",
          "name": "",
          "type": "bool"
        }
      ],
      "stateMutability": "view",
      "type": "function",
      "constant": true
    },
    {
      "inputs": [
        {
          "internalType": "string",
          "name": "_topic",
          "type": "string"
        },
        {
          "internalType": "string",
          "name": "_title",
          "type": "string"
        },
        {
          "internalType": "string",
          "name": "_desc",
          "type": "string"
        },
        {
          "internalType": "string",
          "name": "_image",
          "type": "string"
        },
        {
          "internalType": "uint256",
          "name": "_credits",
          "type": "uint256"
        },
        {
          "internalType": "string",
          "name": "_serialNumber",
          "type": "string"
        }
      ],
      "name": "addToMyProjects",
      "outputs": [
        {
          "internalType": "uint256",
          "name": "",
          "type": "uint256"
        }
      ],
      "stateMutability": "nonpayable",
      "type": "function"
    },
    {
      "inputs": [],
      "name": "getAllMyProjects",
      "outputs": [
        {
          "components": [
            {
              "internalType": "address",
              "name": "project_owner",
              "type": "address"
            },
            {
              "internalType": "string",
              "name": "project_topic",
              "type": "string"
            },
            {
              "internalType": "string",
              "name": "project_title",
              "type": "string"
            },
            {
              "internalType": "string",
              "name": "project_desc",
              "type": "string"
            },
            {
              "internalType": "string",
              "name": "image_url",
              "type": "string"
            },
            {
              "internalType": "uint256",
              "name": "carbon_credits",
              "type": "uint256"
            },
            {
              "internalType": "string",
              "name": "serialNumber",
              "type": "string"
            },
            {
              "internalType": "uint256",
              "name": "date_deployed",
              "type": "uint256"
            },
            {
              "internalType": "address[]",
              "name": "buyers",
              "type": "address[]"
            },
            {
              "internalType": "uint256[]",
              "name": "amount",
              "type": "uint256[]"
            }
          ],
          "internalType": "struct MarketPlace.Project[]",
          "name": "",
          "type": "tuple[]"
        }
      ],
      "stateMutability": "view",
      "type": "function",
      "constant": true
    },
    {
      "inputs": [
        {
          "internalType": "string",
          "name": "_serialNumber",
          "type": "string"
        }
      ],
      "name": "setValidated",
      "outputs": [],
      "stateMutability": "nonpayable",
      "type": "function"
    }
  ],
  "bytecode": "0x6080604052600060015534801561001557600080fd5b50336000806101000a81548173ffffffffffffffffffffffffffffffffffffffff021916908373ffffffffffffffffffffffffffffffffffffffff160217905550611b5c806100656000396000f3fe608060405234801561001057600080fd5b506004361061007d5760003560e01c80638fb100911161005b5780638fb10091146100da578063b6b7a5991461010a578063d797fb9f1461013a578063f6e80f771461016a5761007d565b80634625ae02146100825780637bc9b296146100a05780638da5cb5b146100bc575b600080fd5b61008a6101a1565b604051610097919061128e565b60405180910390f35b6100ba60048036038101906100b591906113f9565b61066e565b005b6100c46106df565b6040516100d19190611463565b60405180910390f35b6100f460048036038101906100ef91906113f9565b610703565b6040516101019190611499565b60405180910390f35b610124600480360381019061011f91906113f9565b610739565b6040516101319190611499565b60405180910390f35b610154600480360381019061014f91906114e0565b61076f565b6040516101619190611608565b60405180910390f35b610184600480360381019061017f919061164f565b610a5f565b6040516101989897969594939291906116e8565b60405180910390f35b60606000600260003373ffffffffffffffffffffffffffffffffffffffff1673ffffffffffffffffffffffffffffffffffffffff168152602001908152602001600020905080805480602002602001604051908101604052809291908181526020016000905b8282101561066457838290600052602060002090600a0201604051806101400160405290816000820160009054906101000a900473ffffffffffffffffffffffffffffffffffffffff1673ffffffffffffffffffffffffffffffffffffffff1673ffffffffffffffffffffffffffffffffffffffff168152602001600182018054610291906117b8565b80601f01602080910402602001604051908101604052809291908181526020018280546102bd906117b8565b801561030a5780601f106102df5761010080835404028352916020019161030a565b820191906000526020600020905b8154815290600101906020018083116102ed57829003601f168201915b50505050508152602001600282018054610323906117b8565b80601f016020809104026020016040519081016040528092919081815260200182805461034f906117b8565b801561039c5780601f106103715761010080835404028352916020019161039c565b820191906000526020600020905b81548152906001019060200180831161037f57829003601f168201915b505050505081526020016003820180546103b5906117b8565b80601f01602080910402602001604051908101604052809291908181526020018280546103e1906117b8565b801561042e5780601f106104035761010080835404028352916020019161042e565b820191906000526020600020905b81548152906001019060200180831161041157829003601f168201915b50505050508152602001600482018054610447906117b8565b80601f0160208091040260200160405190810160405280929190818152602001828054610473906117b8565b80156104c05780601f10610495576101008083540402835291602001916104c0565b820191906000526020600020905b8154815290600101906020018083116104a357829003601f168201915b50505050508152602001600582015481526020016006820180546104e3906117b8565b80601f016020809104026020016040519081016040528092919081815260200182805461050f906117b8565b801561055c5780601f106105315761010080835404028352916020019161055c565b820191906000526020600020905b81548152906001019060200180831161053f57829003601f168201915b5050505050815260200160078201548152602001600882018054806020026020016040519081016040528092919081815260200182805480156105f457602002820191906000526020600020905b8160009054906101000a900473ffffffffffffffffffffffffffffffffffffffff1673ffffffffffffffffffffffffffffffffffffffff16815260200190600101908083116105aa575b505050505081526020016009820180548060200260200160405190810160405280929190818152602001828054801561064c57602002820191906000526020600020905b815481526020019060010190808311610638575b50505050508152505081526020019060010190610207565b5050505091505090565b60016003826040516106809190611825565b908152602001604051809103902060006101000a81548160ff02191690831515021790555060016004826040516106b79190611825565b908152602001604051809103902060006101000a81548160ff02191690831515021790555050565b60008054906101000a900473ffffffffffffffffffffffffffffffffffffffff1681565b6003818051602081018201805184825260208301602085012081835280955050505050506000915054906101000a900460ff1681565b6004818051602081018201805184825260208301602085012081835280955050505050506000915054906101000a900460ff1681565b600081600115156003826040516107869190611825565b908152602001604051809103902060009054906101000a900460ff161515146107e4576040517f08c379a00000000000000000000000000000000000000000000000000000000081526004016107db90611888565b60405180910390fd5b6000600260003373ffffffffffffffffffffffffffffffffffffffff1673ffffffffffffffffffffffffffffffffffffffff168152602001908152602001600020905060006040518061014001604052803373ffffffffffffffffffffffffffffffffffffffff1681526020018b81526020018a8152602001898152602001888152602001878152602001868152602001428152602001600067ffffffffffffffff811115610896576108956112ce565b5b6040519080825280602002602001820160405280156108c45781602001602082028036833780820191505090505b508152602001600067ffffffffffffffff8111156108e5576108e46112ce565b5b6040519080825280602002602001820160405280156109135781602001602082028036833780820191505090505b508152509050818190806001815401808255809150506001900390600052602060002090600a020160009091909190915060008201518160000160006101000a81548173ffffffffffffffffffffffffffffffffffffffff021916908373ffffffffffffffffffffffffffffffffffffffff16021790555060208201518160010190816109a09190611a54565b5060408201518160020190816109b69190611a54565b5060608201518160030190816109cc9190611a54565b5060808201518160040190816109e29190611a54565b5060a0820151816005015560c0820151816006019081610a029190611a54565b5060e08201518160070155610100820151816008019080519060200190610a2a929190610d8c565b50610120820151816009019080519060200190610a48929190610e16565b505050818054905093505050509695505050505050565b60026020528160005260406000208181548110610a7b57600080fd5b90600052602060002090600a0201600091509150508060000160009054906101000a900473ffffffffffffffffffffffffffffffffffffffff1690806001018054610ac5906117b8565b80601f0160208091040260200160405190810160405280929190818152602001828054610af1906117b8565b8015610b3e5780601f10610b1357610100808354040283529160200191610b3e565b820191906000526020600020905b815481529060010190602001808311610b2157829003601f168201915b505050505090806002018054610b53906117b8565b80601f0160208091040260200160405190810160405280929190818152602001828054610b7f906117b8565b8015610bcc5780601f10610ba157610100808354040283529160200191610bcc565b820191906000526020600020905b815481529060010190602001808311610baf57829003601f168201915b505050505090806003018054610be1906117b8565b80601f0160208091040260200160405190810160405280929190818152602001828054610c0d906117b8565b8015610c5a5780601f10610c2f57610100808354040283529160200191610c5a565b820191906000526020600020905b815481529060010190602001808311610c3d57829003601f168201915b505050505090806004018054610c6f906117b8565b80601f0160208091040260200160405190810160405280929190818152602001828054610c9b906117b8565b8015610ce85780601f10610cbd57610100808354040283529160200191610ce8565b820191906000526020600020905b815481529060010190602001808311610ccb57829003601f168201915b505050505090806005015490806006018054610d03906117b8565b80601f0160208091040260200160405190810160405280929190818152602001828054610d2f906117b8565b8015610d7c5780601f10610d5157610100808354040283529160200191610d7c565b820191906000526020600020905b815481529060010190602001808311610d5f57829003601f168201915b5050505050908060070154905088565b828054828255906000526020600020908101928215610e05579160200282015b82811115610e045782518260006101000a81548173ffffffffffffffffffffffffffffffffffffffff021916908373ffffffffffffffffffffffffffffffffffffffff16021790555091602001919060010190610dac565b5b509050610e129190610e63565b5090565b828054828255906000526020600020908101928215610e52579160200282015b82811115610e51578251825591602001919060010190610e36565b5b509050610e5f9190610e63565b5090565b5b80821115610e7c576000816000905550600101610e64565b5090565b600081519050919050565b600082825260208201905092915050565b6000819050602082019050919050565b600073ffffffffffffffffffffffffffffffffffffffff82169050919050565b6000610ed782610eac565b9050919050565b610ee781610ecc565b82525050565b600081519050919050565b600082825260208201905092915050565b60005b83811015610f27578082015181840152602081019050610f0c565b60008484015250505050565b6000601f19601f8301169050919050565b6000610f4f82610eed565b610f598185610ef8565b9350610f69818560208601610f09565b610f7281610f33565b840191505092915050565b6000819050919050565b610f9081610f7d565b82525050565b600081519050919050565b600082825260208201905092915050565b6000819050602082019050919050565b6000610fce8383610ede565b60208301905092915050565b6000602082019050919050565b6000610ff282610f96565b610ffc8185610fa1565b935061100783610fb2565b8060005b8381101561103857815161101f8882610fc2565b975061102a83610fda565b92505060018101905061100b565b5085935050505092915050565b600081519050919050565b600082825260208201905092915050565b6000819050602082019050919050565b600061107d8383610f87565b60208301905092915050565b6000602082019050919050565b60006110a182611045565b6110ab8185611050565b93506110b683611061565b8060005b838110156110e75781516110ce8882611071565b97506110d983611089565b9250506001810190506110ba565b5085935050505092915050565b60006101408301600083015161110d6000860182610ede565b50602083015184820360208601526111258282610f44565b9150506040830151848203604086015261113f8282610f44565b915050606083015184820360608601526111598282610f44565b915050608083015184820360808601526111738282610f44565b91505060a083015161118860a0860182610f87565b5060c083015184820360c08601526111a08282610f44565b91505060e08301516111b560e0860182610f87565b506101008301518482036101008601526111cf8282610fe7565b9150506101208301518482036101208601526111eb8282611096565b9150508091505092915050565b600061120483836110f4565b905092915050565b6000602082019050919050565b600061122482610e80565b61122e8185610e8b565b93508360208202850161124085610e9c565b8060005b8581101561127c578484038952815161125d85826111f8565b94506112688361120c565b925060208a01995050600181019050611244565b50829750879550505050505092915050565b600060208201905081810360008301526112a88184611219565b905092915050565b6000604051905090565b600080fd5b600080fd5b600080fd5b600080fd5b7f4e487b7100000000000000000000000000000000000000000000000000000000600052604160045260246000fd5b61130682610f33565b810181811067ffffffffffffffff82111715611325576113246112ce565b5b80604052505050565b60006113386112b0565b905061134482826112fd565b919050565b600067ffffffffffffffff821115611364576113636112ce565b5b61136d82610f33565b9050602081019050919050565b82818337600083830152505050565b600061139c61139784611349565b61132e565b9050828152602081018484840111156113b8576113b76112c9565b5b6113c384828561137a565b509392505050565b600082601f8301126113e0576113df6112c4565b5b81356113f0848260208601611389565b91505092915050565b60006020828403121561140f5761140e6112ba565b5b600082013567ffffffffffffffff81111561142d5761142c6112bf565b5b611439848285016113cb565b91505092915050565b600061144d82610eac565b9050919050565b61145d81611442565b82525050565b60006020820190506114786000830184611454565b92915050565b60008115159050919050565b6114938161147e565b82525050565b60006020820190506114ae600083018461148a565b92915050565b6114bd81610f7d565b81146114c857600080fd5b50565b6000813590506114da816114b4565b92915050565b60008060008060008060c087890312156114fd576114fc6112ba565b5b600087013567ffffffffffffffff81111561151b5761151a6112bf565b5b61152789828a016113cb565b965050602087013567ffffffffffffffff811115611548576115476112bf565b5b61155489828a016113cb565b955050604087013567ffffffffffffffff811115611575576115746112bf565b5b61158189828a016113cb565b945050606087013567ffffffffffffffff8111156115a2576115a16112bf565b5b6115ae89828a016113cb565b93505060806115bf89828a016114cb565b92505060a087013567ffffffffffffffff8111156115e0576115df6112bf565b5b6115ec89828a016113cb565b9150509295509295509295565b61160281610f7d565b82525050565b600060208201905061161d60008301846115f9565b92915050565b61162c81610ecc565b811461163757600080fd5b50565b60008135905061164981611623565b92915050565b60008060408385031215611666576116656112ba565b5b60006116748582860161163a565b9250506020611685858286016114cb565b9150509250929050565b61169881610ecc565b82525050565b600082825260208201905092915050565b60006116ba82610eed565b6116c4818561169e565b93506116d4818560208601610f09565b6116dd81610f33565b840191505092915050565b6000610100820190506116fe600083018b61168f565b8181036020830152611710818a6116af565b9050818103604083015261172481896116af565b9050818103606083015261173881886116af565b9050818103608083015261174c81876116af565b905061175b60a08301866115f9565b81810360c083015261176d81856116af565b905061177c60e08301846115f9565b9998505050505050505050565b7f4e487b7100000000000000000000000000000000000000000000000000000000600052602260045260246000fd5b600060028204905060018216806117d057607f821691505b6020821081036117e3576117e2611789565b5b50919050565b600081905092915050565b60006117ff82610eed565b61180981856117e9565b9350611819818560208601610f09565b80840191505092915050565b600061183182846117f4565b915081905092915050565b7f446f63756d656e74206e6f742076616c69646174656420796574000000000000600082015250565b6000611872601a8361169e565b915061187d8261183c565b602082019050919050565b600060208201905081810360008301526118a181611865565b9050919050565b60008190508160005260206000209050919050565b60006020601f8301049050919050565b600082821b905092915050565b60006008830261190a7fffffffffffffffffffffffffffffffffffffffffffffffffffffffffffffffff826118cd565b61191486836118cd565b95508019841693508086168417925050509392505050565b6000819050919050565b600061195161194c61194784610f7d565b61192c565b610f7d565b9050919050565b6000819050919050565b61196b83611936565b61197f61197782611958565b8484546118da565b825550505050565b600090565b611994611987565b61199f818484611962565b505050565b5b818110156119c3576119b860008261198c565b6001810190506119a5565b5050565b601f821115611a08576119d9816118a8565b6119e2846118bd565b810160208510156119f1578190505b611a056119fd856118bd565b8301826119a4565b50505b505050565b600082821c905092915050565b6000611a2b60001984600802611a0d565b1980831691505092915050565b6000611a448383611a1a565b9150826002028217905092915050565b611a5d82610eed565b67ffffffffffffffff811115611a7657611a756112ce565b5b611a8082546117b8565b611a8b8282856119c7565b600060209050601f831160018114611abe5760008415611aac578287015190505b611ab68582611a38565b865550611b1e565b601f198416611acc866118a8565b60005b82811015611af457848901518255600182019150602085019450602081019050611acf565b86831015611b115784890151611b0d601f891682611a1a565b8355505b6001600288020188555050505b50505050505056fea2646970667358221220b7538c5691ffe9941abc1f9df395b38c74bda7f2e61fa33eaf59796c9b11a70064736f6c63430008130033",
  "immutableReferences": {},
  "source": "// SPDX-License-Identifier: MIT\r\npragma solidity ^0.8.16;\r\n\r\ncontract MarketPlace {\r\n    //constructor and initializing values\r\n    address payable public owner;\r\n\r\n    constructor() {\r\n        owner = payable(msg.sender);\r\n    }\r\n\r\n    //data structures\r\n    struct Project {\r\n        address project_owner;\r\n        string project_topic;\r\n        string project_title;\r\n        string project_desc;\r\n        string image_url;\r\n        uint carbon_credits;\r\n        string serialNumber;\r\n        uint date_deployed;\r\n        address[] buyers;\r\n        uint[] amount;\r\n    }\r\n\r\n    //data structure for storing projects\r\n    uint numberOfProjects = 0;\r\n    mapping(address => Project[]) public myprojects;\r\n    \r\n    mapping(string => bool) public validated;\r\n    mapping(string => bool) public retired;\r\n\r\n    //function to create Projects\r\n    function addToMyProjects(\r\n        string memory _topic,\r\n        string memory _title,\r\n        string memory _desc,\r\n        string memory _image,\r\n        uint _credits,\r\n        string memory _serialNumber\r\n    ) public validatedDoc(_serialNumber) returns (uint) {\r\n        Project[] storage projects = myprojects[msg.sender];\r\n        Project memory project = Project({\r\n            project_owner: msg.sender,\r\n            project_topic: _topic,\r\n            project_title: _title,\r\n            project_desc: _desc,\r\n            image_url: _image,\r\n            carbon_credits: _credits,\r\n            serialNumber: _serialNumber,\r\n            date_deployed: block.timestamp,\r\n            buyers: new address[](0),\r\n            amount: new uint[](0)\r\n        });\r\n        projects.push(project);\r\n        return projects.length;\r\n    }\r\n\r\n    function getAllMyProjects() public view returns (Project[] memory) {\r\n        Project[] storage projects = myprojects[msg.sender];\r\n        return projects;\r\n    }\r\n\r\n    //function to set validated documents and retired documents\r\n    function setValidated(string memory _serialNumber) public {\r\n        validated[_serialNumber] = true;\r\n        retired[_serialNumber] = true;\r\n    }\r\n\r\n    //modifiers\r\n    modifier validatedDoc(string memory _serialNumber) {\r\n        require(validated[_serialNumber] == true, \"Document not validated yet\");\r\n        _;\r\n    }\r\n}\r\n\r\n",
  "sourcePath": "C:\\Users\\SUMESH S\\OneDrive\\Documents\\Carbo\\marketplace\\contracts\\marketplace.sol",
  "compiler": {
    "name": "solc",
    "version": "0.8.19+commit.7dd6d404.Emscripten.clang"
  },
  "schemaVersion": "3.4.13",
  "updatedAt": "2023-05-05T01:53:34.613Z",
  "networkType": "ethereum",
  "devdoc": {
    "kind": "dev",
    "methods": {},
    "version": 1
  },
  "userdoc": {
    "kind": "user",
    "methods": {},
    "version": 1
  }
}